{
  "contractName": "Anubis",
  "abi": [
    {
      "constant": true,
      "inputs": [
        {
          "name": "",
          "type": "address"
        }
      ],
      "name": "Maat",
      "outputs": [
        {
          "name": "name",
          "type": "string"
        },
        {
          "name": "alive",
          "type": "bool"
        },
        {
          "name": "location",
          "type": "uint256"
        }
      ],
      "payable": false,
      "stateMutability": "view",
      "type": "function"
    },
    {
      "constant": true,
      "inputs": [],
      "name": "pyramidCounter",
      "outputs": [
        {
          "name": "",
          "type": "uint256"
        }
      ],
      "payable": false,
      "stateMutability": "view",
      "type": "function"
    },
    {
      "constant": true,
      "inputs": [],
      "name": "population",
      "outputs": [
        {
          "name": "",
          "type": "uint256"
        }
      ],
      "payable": false,
      "stateMutability": "view",
      "type": "function"
    },
    {
      "constant": true,
      "inputs": [
        {
          "name": "",
          "type": "uint256"
        }
      ],
      "name": "Jesus",
      "outputs": [
        {
          "name": "",
          "type": "address"
        }
      ],
      "payable": false,
      "stateMutability": "view",
      "type": "function"
    },
    {
      "constant": true,
      "inputs": [
        {
          "name": "",
          "type": "uint256"
        }
      ],
      "name": "Sahara",
      "outputs": [
        {
          "name": "pharaoh",
          "type": "address"
        },
        {
          "name": "challenger",
          "type": "address"
        },
        {
          "name": "pyramidHeight",
          "type": "uint32"
        },
        {
          "name": "pyramidClock",
          "type": "uint32"
        },
        {
          "name": "round",
          "type": "uint8"
        },
        {
          "name": "inChallenge",
          "type": "bool"
        },
        {
          "name": "pharaoh_Done",
          "type": "bool"
        },
        {
          "name": "challenger_Done",
          "type": "bool"
        }
      ],
      "payable": false,
      "stateMutability": "view",
      "type": "function"
    },
    {
      "inputs": [],
      "payable": false,
      "stateMutability": "nonpayable",
      "type": "constructor"
    },
    {
      "anonymous": false,
      "inputs": [
        {
          "indexed": false,
          "name": "_kingId",
          "type": "address"
        },
        {
          "indexed": false,
          "name": "_playerId",
          "type": "address"
        }
      ],
      "name": "Battle",
      "type": "event"
    },
    {
      "constant": false,
      "inputs": [
        {
          "name": "_id",
          "type": "address"
        },
        {
          "name": "_name",
          "type": "string"
        }
      ],
      "name": "createEgyption",
      "outputs": [
        {
          "name": "",
          "type": "string"
        }
      ],
      "payable": false,
      "stateMutability": "nonpayable",
      "type": "function"
    },
    {
      "constant": false,
      "inputs": [
        {
          "name": "_id",
          "type": "address"
        }
      ],
      "name": "getName",
      "outputs": [
        {
          "name": "",
          "type": "string"
        }
      ],
      "payable": false,
      "stateMutability": "nonpayable",
      "type": "function"
    },
    {
      "constant": false,
      "inputs": [
        {
          "name": "_id",
          "type": "address"
        },
        {
          "name": "_height",
          "type": "uint32"
        }
      ],
      "name": "createPyramid",
      "outputs": [],
      "payable": false,
      "stateMutability": "nonpayable",
      "type": "function"
    },
    {
      "constant": false,
      "inputs": [
        {
          "name": "_pyramidNumber",
          "type": "uint256"
        }
      ],
      "name": "destroyPyramid",
      "outputs": [],
      "payable": false,
      "stateMutability": "nonpayable",
      "type": "function"
    },
    {
      "constant": false,
      "inputs": [
        {
          "name": "_id",
          "type": "address"
        }
      ],
      "name": "getmyPyramid",
      "outputs": [
        {
          "name": "",
          "type": "uint256"
        }
      ],
      "payable": false,
      "stateMutability": "nonpayable",
      "type": "function"
    },
    {
      "constant": false,
      "inputs": [
        {
          "name": "_id",
          "type": "address"
        },
        {
          "name": "_pyramidNumber",
          "type": "uint256"
        }
      ],
      "name": "goIntoPyramid",
      "outputs": [
        {
          "name": "",
          "type": "string"
        }
      ],
      "payable": false,
      "stateMutability": "nonpayable",
      "type": "function"
    },
    {
      "constant": false,
      "inputs": [
        {
          "name": "_id",
          "type": "address"
        },
        {
          "name": "_pyramidNumber",
          "type": "uint256"
        },
        {
          "name": "_isCivilian",
          "type": "bool"
        }
      ],
      "name": "selectCard",
      "outputs": [],
      "payable": false,
      "stateMutability": "nonpayable",
      "type": "function"
    },
    {
      "constant": false,
      "inputs": [
        {
          "name": "_pyramidNumber",
          "type": "uint256"
        },
        {
          "name": "_round",
          "type": "uint256"
        }
      ],
      "name": "getBattleHistory",
      "outputs": [
        {
          "name": "",
          "type": "uint256"
        }
      ],
      "payable": false,
      "stateMutability": "nonpayable",
      "type": "function"
    },
    {
      "constant": false,
      "inputs": [
        {
          "name": "_pyramidNumber",
          "type": "uint256"
        }
      ],
      "name": "judge",
      "outputs": [
        {
          "name": "",
          "type": "address"
        }
      ],
      "payable": false,
      "stateMutability": "nonpayable",
      "type": "function"
    }
  ],
  "bytecode": "0x6080604052600160045560006005553480156200001b57600080fd5b50600073b97aec1ad0c971c8f29fca47a2fc4cf2369ec7109050600073a23d7c5ae0410e723d43978d66dd29ed9cb3c5d190506200009e826040805190810160405280600a81526020017f4b6f6c6f676f726d6f76000000000000000000000000000000000000000000008152506200016c640100000000026401000000009004565b50620000ef816040805190810160405280600881526020017f45696e737465696e0000000000000000000000000000000000000000000000008152506200016c640100000000026401000000009004565b506200010d826103e8620005bf640100000000026401000000009004565b6200012981600062000925640100000000026401000000009004565b50620001478260018062000c57640100000000026401000000009004565b620001648160018062000c57640100000000026401000000009004565b5050620017bd565b6060600080905060008090505b600554811015620001fe5760008082815260200190815260200160002060009054906101000a900473ffffffffffffffffffffffffffffffffffffffff1673ffffffffffffffffffffffffffffffffffffffff168573ffffffffffffffffffffffffffffffffffffffff161415620001f057600191505b808060010191505062000179565b508015156200057f57600080905060008090505b600554811015620003e6576001600080600084815260200190815260200160002060009054906101000a900473ffffffffffffffffffffffffffffffffffffffff1673ffffffffffffffffffffffffffffffffffffffff1673ffffffffffffffffffffffffffffffffffffffff1681526020019081526020016000206000016040516020018080602001828103825283818154600181600116156101000203166002900481526020019150805460018160011615610100020316600290048015620003215780601f10620002f55761010080835404028352916020019162000321565b820191906000526020600020905b8154815290600101906020018083116200030357829003601f168201915b50509250505060405160208183030381529060405280519060200120856040516020018080602001828103825283818151815260200191508051906020019080838360005b838110156200038357808201518184015260208101905062000366565b50505050905090810190601f168015620003b15780820380516001836020036101000a031916815260200191505b5092505050604051602081830303815290604052805190602001201415620003d857600191505b808060010191505062000212565b508015156200053f5784600080600554815260200190815260200160002060006101000a81548173ffffffffffffffffffffffffffffffffffffffff021916908373ffffffffffffffffffffffffffffffffffffffff1602179055506005600081548092919060010191905055506060604051908101604052808581526020016001151581526020016000815250600160008773ffffffffffffffffffffffffffffffffffffffff1673ffffffffffffffffffffffffffffffffffffffff1681526020019081526020016000206000820151816000019080519060200190620004d19291906200162d565b5060208201518160010160006101000a81548160ff021916908315150217905550604082015181600201559050506040805190810160405280600981526020017f537563636565642121000000000000000000000000000000000000000000000081525092505050620005b9565b6040805190810160405280600f81526020017f4e616d652072657065617465642121000000000000000000000000000000000081525092505050620005b9565b6040805190810160405280601b81526020017f4164647265737320686173206265656e207265676973746564212100000000008152509150505b92915050565b600454600160008473ffffffffffffffffffffffffffffffffffffffff1673ffffffffffffffffffffffffffffffffffffffff16815260200190815260200160002060020181905550610100604051908101604052808373ffffffffffffffffffffffffffffffffffffffff168152602001600073ffffffffffffffffffffffffffffffffffffffff1681526020018263ffffffff168152602001600063ffffffff168152602001600060ff1681526020016000151581526020016000151581526020016000151581525060026000600454815260200190815260200160002060008201518160000160006101000a81548173ffffffffffffffffffffffffffffffffffffffff021916908373ffffffffffffffffffffffffffffffffffffffff16021790555060208201518160010160006101000a81548173ffffffffffffffffffffffffffffffffffffffff021916908373ffffffffffffffffffffffffffffffffffffffff16021790555060408201518160010160146101000a81548163ffffffff021916908363ffffffff16021790555060608201518160010160186101000a81548163ffffffff021916908363ffffffff160217905550608082015181600101601c6101000a81548160ff021916908360ff16021790555060a082015181600101601d6101000a81548160ff02191690831515021790555060c082015181600101601e6101000a81548160ff02191690831515021790555060e082015181600101601f6101000a81548160ff0219169083151502179055509050506000604051908082528060200260200182016040528015620008305781602001602082028038833980820191505090505b5060036000600454815260200190815260200160002090805190602001906200085b929190620016b4565b5060008090505b6005811015620008d6576003600060045481526020019081526020016000206000908060018154018082558091505090600182039060005260206000209060209182820401919006909192909190916101000a81548160ff021916908360ff16021790555050808060010191505062000862565b50600060026000600454815260200190815260200160002060010160186101000a81548163ffffffff021916908363ffffffff1602179055506004600081548092919060010191905055505050565b6060600454821015156200093857600080fd5b60026000838152602001908152602001600020600101601d9054906101000a900460ff1615620009a0576040805190810160405280600f81526020017f496e204368616c6c656e67652e2e2e0000000000000000000000000000000000815250905062000c51565b6002600083815260200190815260200160002060000160009054906101000a900473ffffffffffffffffffffffffffffffffffffffff1673ffffffffffffffffffffffffffffffffffffffff168373ffffffffffffffffffffffffffffffffffffffff16141562000a49576040805190810160405280601c81526020017f43616e6e6f7420706c6179207769746820796f757273656c662e2e2e00000000815250905062000c51565b81600160008573ffffffffffffffffffffffffffffffffffffffff1673ffffffffffffffffffffffffffffffffffffffff16815260200190815260200160002060020181905550826002600084815260200190815260200160002060010160006101000a81548173ffffffffffffffffffffffffffffffffffffffff021916908373ffffffffffffffffffffffffffffffffffffffff160217905550600160026000848152602001908152602001600020600101601d6101000a81548160ff021916908315150217905550600060026000848152602001908152602001600020600101601c6101000a81548160ff021916908360ff160217905550600060405190808252806020026020018201604052801562000b755781602001602082028038833980820191505090505b5060036000848152602001908152602001600020908051906020019062000b9e929190620016b4565b5060008090505b600581101562000c1757600360008481526020019081526020016000206000908060018154018082558091505090600182039060005260206000209060209182820401919006909192909190916101000a81548160ff021916908360ff16021790555050808060010191505062000ba5565b506040805190810160405280600b81526020017f5374617274696e672e2e2e00000000000000000000000000000000000000000081525090505b92915050565b8273ffffffffffffffffffffffffffffffffffffffff166002600084815260200190815260200160002060000160009054906101000a900473ffffffffffffffffffffffffffffffffffffffff1673ffffffffffffffffffffffffffffffffffffffff16141562000dde5762000d156003600084815260200190815260200160002060026000858152602001908152602001600020600101601c9054906101000a900460ff1660018462001079640100000000026401000000009004565b1562000dd857801562000da85760026003600084815260200190815260200160002060026000858152602001908152602001600020600101601c9054906101000a900460ff1660ff1681548110151562000d6b57fe5b90600052602060002090602091828204019190068282829054906101000a900460ff160192506101000a81548160ff021916908360ff1602179055505b600160026000848152602001908152602001600020600101601e6101000a81548160ff0219169083151502179055505b62000f61565b8273ffffffffffffffffffffffffffffffffffffffff166002600084815260200190815260200160002060010160009054906101000a900473ffffffffffffffffffffffffffffffffffffffff1673ffffffffffffffffffffffffffffffffffffffff16141562000f605762000e9c6003600084815260200190815260200160002060026000858152602001908152602001600020600101601c9054906101000a900460ff1660018462001079640100000000026401000000009004565b1562000f5f57801562000f2f5760016003600084815260200190815260200160002060026000858152602001908152602001600020600101601c9054906101000a900460ff1660ff1681548110151562000ef257fe5b90600052602060002090602091828204019190068282829054906101000a900460ff160192506101000a81548160ff021916908360ff1602179055505b600160026000848152602001908152602001600020600101601f6101000a81548160ff0219169083151502179055505b5b5b60026000838152602001908152602001600020600101601e9054906101000a900460ff16801562000fb2575060026000838152602001908152602001600020600101601f9054906101000a900460ff165b156200107457600160026000848152602001908152602001600020600101601c8282829054906101000a900460ff160192506101000a81548160ff021916908360ff160217905550600060026000848152602001908152602001600020600101601e6101000a81548160ff021916908315150217905550600060026000848152602001908152602001600020600101601f6101000a81548160ff021916908315150217905550620010728262001087640100000000026401000000009004565b505b505050565b600060019050949350505050565b6000806000905060008060008090505b60026000878152602001908152602001600020600101601c9054906101000a900460ff1660ff16811015620012995760006003600088815260200190815260200160002082815481101515620010e957fe5b90600052602060002090602091828204019190069054906101000a900460ff1660ff161415620011ab57600193506002600087815260200190815260200160002060010160009054906101000a900473ffffffffffffffffffffffffffffffffffffffff1692506002600087815260200190815260200160002060000160009054906101000a900473ffffffffffffffffffffffffffffffffffffffff169150620011a586600162001364640100000000026401000000009004565b6200128b565b600380600088815260200190815260200160002082815481101515620011cd57fe5b90600052602060002090602091828204019190069054906101000a900460ff1660ff1610156200128a57600193506002600087815260200190815260200160002060010160009054906101000a900473ffffffffffffffffffffffffffffffffffffffff1691506002600087815260200190815260200160002060000160009054906101000a900473ffffffffffffffffffffffffffffffffffffffff1692506200128986600062001364640100000000026401000000009004565b5b5b808060010191505062001097565b508215620013575784600160008473ffffffffffffffffffffffffffffffffffffffff1673ffffffffffffffffffffffffffffffffffffffff168152602001908152602001600020600201819055506000600160008373ffffffffffffffffffffffffffffffffffffffff1673ffffffffffffffffffffffffffffffffffffffff168152602001908152602001600020600201819055506200134b858362001412640100000000026401000000009004565b8193505050506200135f565b600093505050505b919050565b8015620013bc5760016002600084815260200190815260200160002060010160188282829054906101000a900463ffffffff160192506101000a81548163ffffffff021916908363ffffffff160217905550620013f3565b60006002600084815260200190815260200160002060010160186101000a81548163ffffffff021916908363ffffffff1602179055505b6200140d82620014f0640100000000026401000000009004565b505050565b806002600084815260200190815260200160002060000160006101000a81548173ffffffffffffffffffffffffffffffffffffffff021916908373ffffffffffffffffffffffffffffffffffffffff16021790555060006002600084815260200190815260200160002060010160006101000a81548173ffffffffffffffffffffffffffffffffffffffff021916908373ffffffffffffffffffffffffffffffffffffffff160217905550600060026000848152602001908152602001600020600101601d6101000a81548160ff0219169083151502179055505050565b600060036002600084815260200190815260200160002060010160189054906101000a900463ffffffff1663ffffffff1611156200154357620015428262001548640100000000026401000000009004565b5b919050565b60026000828152602001908152602001600020600080820160006101000a81549073ffffffffffffffffffffffffffffffffffffffff02191690556001820160006101000a81549073ffffffffffffffffffffffffffffffffffffffff02191690556001820160146101000a81549063ffffffff02191690556001820160186101000a81549063ffffffff021916905560018201601c6101000a81549060ff021916905560018201601d6101000a81549060ff021916905560018201601e6101000a81549060ff021916905560018201601f6101000a81549060ff0219169055505050565b828054600181600116156101000203166002900490600052602060002090601f016020900481019282601f106200167057805160ff1916838001178555620016a1565b82800160010185558215620016a1579182015b82811115620016a057825182559160200191906001019062001683565b5b509050620016b0919062001762565b5090565b82805482825590600052602060002090601f016020900481019282156200174f5791602002820160005b838211156200171e57835183826101000a81548160ff021916908360ff1602179055509260200192600101602081600001049283019260010302620016de565b80156200174d5782816101000a81549060ff02191690556001016020816000010492830192600103026200171e565b505b5090506200175e91906200178a565b5090565b6200178791905b808211156200178357600081600090555060010162001769565b5090565b90565b620017ba91905b80821115620017b657600081816101000a81549060ff02191690555060010162001791565b5090565b90565b61220680620017cd6000396000f3fe6080604052600436106100d0576000357c0100000000000000000000000000000000000000000000000000000000900463ffffffff1680631a86137c146100d55780632c7818cd146101365780632f14d64514610297578063313ec95c146102d2578063501e5c54146103a6578063549be0a5146104825780635fd4b08a146104ad57806378880f4a146105775780637a0d304f146105a2578063816601151461061d57806389bab95714610676578063b72d3d07146106db578063cddb8df2146107dd578063eed07a6914610858575b600080fd5b3480156100e157600080fd5b50610134600480360360408110156100f857600080fd5b81019080803573ffffffffffffffffffffffffffffffffffffffff169060200190929190803563ffffffff1690602001909291905050506108bf565b005b34801561014257600080fd5b5061021c6004803603604081101561015957600080fd5b81019080803573ffffffffffffffffffffffffffffffffffffffff1690602001909291908035906020019064010000000081111561019657600080fd5b8201836020820111156101a857600080fd5b803590602001918460018302840111640100000000831117156101ca57600080fd5b91908080601f016020809104026020016040519081016040528093929190818152602001838380828437600081840152601f19601f820116905080830192505050505050509192919290505050610c20565b6040518080602001828103825283818151815260200191508051906020019080838360005b8381101561025c578082015181840152602081019050610241565b50505050905090810190601f1680156102895780820380516001836020036101000a031916815260200191505b509250505060405180910390f35b3480156102a357600080fd5b506102d0600480360360208110156102ba57600080fd5b8101908080359060200190929190505050611060565b005b3480156102de57600080fd5b5061032b600480360360408110156102f557600080fd5b81019080803573ffffffffffffffffffffffffffffffffffffffff16906020019092919080359060200190929190505050611145565b6040518080602001828103825283818151815260200191508051906020019080838360005b8381101561036b578082015181840152602081019050610350565b50505050905090810190601f1680156103985780820380516001836020036101000a031916815260200191505b509250505060405180910390f35b3480156103b257600080fd5b506103f5600480360360208110156103c957600080fd5b81019080803573ffffffffffffffffffffffffffffffffffffffff16906020019092919050505061146d565b604051808060200184151515158152602001838152602001828103825285818151815260200191508051906020019080838360005b8381101561044557808201518184015260208101905061042a565b50505050905090810190601f1680156104725780820380516001836020036101000a031916815260200191505b5094505050505060405180910390f35b34801561048e57600080fd5b5061049761153c565b6040518082815260200191505060405180910390f35b3480156104b957600080fd5b506104fc600480360360208110156104d057600080fd5b81019080803573ffffffffffffffffffffffffffffffffffffffff169060200190929190505050611542565b6040518080602001828103825283818151815260200191508051906020019080838360005b8381101561053c578082015181840152602081019050610521565b50505050905090810190601f1680156105695780820380516001836020036101000a031916815260200191505b509250505060405180910390f35b34801561058357600080fd5b5061058c611626565b6040518082815260200191505060405180910390f35b3480156105ae57600080fd5b506105db600480360360208110156105c557600080fd5b810190808035906020019092919050505061162c565b604051808273ffffffffffffffffffffffffffffffffffffffff1673ffffffffffffffffffffffffffffffffffffffff16815260200191505060405180910390f35b34801561062957600080fd5b506106606004803603604081101561064057600080fd5b81019080803590602001909291908035906020019092919050505061165f565b6040518082815260200191505060405180910390f35b34801561068257600080fd5b506106c56004803603602081101561069957600080fd5b81019080803573ffffffffffffffffffffffffffffffffffffffff1690602001909291905050506116e4565b6040518082815260200191505060405180910390f35b3480156106e757600080fd5b50610714600480360360208110156106fe57600080fd5b8101908080359060200190929190505050611730565b604051808973ffffffffffffffffffffffffffffffffffffffff1673ffffffffffffffffffffffffffffffffffffffff1681526020018873ffffffffffffffffffffffffffffffffffffffff1673ffffffffffffffffffffffffffffffffffffffff1681526020018763ffffffff1663ffffffff1681526020018663ffffffff1663ffffffff1681526020018560ff1660ff1681526020018415151515815260200183151515158152602001821515151581526020019850505050505050505060405180910390f35b3480156107e957600080fd5b506108166004803603602081101561080057600080fd5b810190808035906020019092919050505061180c565b604051808273ffffffffffffffffffffffffffffffffffffffff1673ffffffffffffffffffffffffffffffffffffffff16815260200191505060405180910390f35b34801561086457600080fd5b506108bd6004803603606081101561087b57600080fd5b81019080803573ffffffffffffffffffffffffffffffffffffffff16906020019092919080359060200190929190803515159060200190929190505050611aad565b005b600454600160008473ffffffffffffffffffffffffffffffffffffffff1673ffffffffffffffffffffffffffffffffffffffff16815260200190815260200160002060020181905550610100604051908101604052808373ffffffffffffffffffffffffffffffffffffffff168152602001600073ffffffffffffffffffffffffffffffffffffffff1681526020018263ffffffff168152602001600063ffffffff168152602001600060ff1681526020016000151581526020016000151581526020016000151581525060026000600454815260200190815260200160002060008201518160000160006101000a81548173ffffffffffffffffffffffffffffffffffffffff021916908373ffffffffffffffffffffffffffffffffffffffff16021790555060208201518160010160006101000a81548173ffffffffffffffffffffffffffffffffffffffff021916908373ffffffffffffffffffffffffffffffffffffffff16021790555060408201518160010160146101000a81548163ffffffff021916908363ffffffff16021790555060608201518160010160186101000a81548163ffffffff021916908363ffffffff160217905550608082015181600101601c6101000a81548160ff021916908360ff16021790555060a082015181600101601d6101000a81548160ff02191690831515021790555060c082015181600101601e6101000a81548160ff02191690831515021790555060e082015181600101601f6101000a81548160ff0219169083151502179055509050506000604051908082528060200260200182016040528015610b2f5781602001602082028038833980820191505090505b506003600060045481526020019081526020016000209080519060200190610b5892919061205e565b5060008090505b6005811015610bd1576003600060045481526020019081526020016000206000908060018154018082558091505090600182039060005260206000209060209182820401919006909192909190916101000a81548160ff021916908360ff160217905550508080600101915050610b5f565b50600060026000600454815260200190815260200160002060010160186101000a81548163ffffffff021916908363ffffffff1602179055506004600081548092919060010191905055505050565b6060600080905060008090505b600554811015610caf5760008082815260200190815260200160002060009054906101000a900473ffffffffffffffffffffffffffffffffffffffff1673ffffffffffffffffffffffffffffffffffffffff168573ffffffffffffffffffffffffffffffffffffffff161415610ca257600191505b8080600101915050610c2d565b5080151561102057600080905060008090505b600554811015610e8c576001600080600084815260200190815260200160002060009054906101000a900473ffffffffffffffffffffffffffffffffffffffff1673ffffffffffffffffffffffffffffffffffffffff1673ffffffffffffffffffffffffffffffffffffffff1681526020019081526020016000206000016040516020018080602001828103825283818154600181600116156101000203166002900481526020019150805460018160011615610100020316600290048015610dcc5780601f10610da157610100808354040283529160200191610dcc565b820191906000526020600020905b815481529060010190602001808311610daf57829003601f168201915b50509250505060405160208183030381529060405280519060200120856040516020018080602001828103825283818151815260200191508051906020019080838360005b83811015610e2c578082015181840152602081019050610e11565b50505050905090810190601f168015610e595780820380516001836020036101000a031916815260200191505b5092505050604051602081830303815290604052805190602001201415610e7f57600191505b8080600101915050610cc2565b50801515610fe15784600080600554815260200190815260200160002060006101000a81548173ffffffffffffffffffffffffffffffffffffffff021916908373ffffffffffffffffffffffffffffffffffffffff1602179055506005600081548092919060010191905055506060604051908101604052808581526020016001151581526020016000815250600160008773ffffffffffffffffffffffffffffffffffffffff1673ffffffffffffffffffffffffffffffffffffffff1681526020019081526020016000206000820151816000019080519060200190610f74929190612105565b5060208201518160010160006101000a81548160ff021916908315150217905550604082015181600201559050506040805190810160405280600981526020017f53756363656564212100000000000000000000000000000000000000000000008152509250505061105a565b6040805190810160405280600f81526020017f4e616d65207265706561746564212100000000000000000000000000000000008152509250505061105a565b6040805190810160405280601b81526020017f4164647265737320686173206265656e207265676973746564212100000000008152509150505b92915050565b60026000828152602001908152602001600020600080820160006101000a81549073ffffffffffffffffffffffffffffffffffffffff02191690556001820160006101000a81549073ffffffffffffffffffffffffffffffffffffffff02191690556001820160146101000a81549063ffffffff02191690556001820160186101000a81549063ffffffff021916905560018201601c6101000a81549060ff021916905560018201601d6101000a81549060ff021916905560018201601e6101000a81549060ff021916905560018201601f6101000a81549060ff0219169055505050565b60606004548210151561115757600080fd5b60026000838152602001908152602001600020600101601d9054906101000a900460ff16156111bd576040805190810160405280600f81526020017f496e204368616c6c656e67652e2e2e00000000000000000000000000000000008152509050611467565b6002600083815260200190815260200160002060000160009054906101000a900473ffffffffffffffffffffffffffffffffffffffff1673ffffffffffffffffffffffffffffffffffffffff168373ffffffffffffffffffffffffffffffffffffffff161415611264576040805190810160405280601c81526020017f43616e6e6f7420706c6179207769746820796f757273656c662e2e2e000000008152509050611467565b81600160008573ffffffffffffffffffffffffffffffffffffffff1673ffffffffffffffffffffffffffffffffffffffff16815260200190815260200160002060020181905550826002600084815260200190815260200160002060010160006101000a81548173ffffffffffffffffffffffffffffffffffffffff021916908373ffffffffffffffffffffffffffffffffffffffff160217905550600160026000848152602001908152602001600020600101601d6101000a81548160ff021916908315150217905550600060026000848152602001908152602001600020600101601c6101000a81548160ff021916908360ff160217905550600060405190808252806020026020018201604052801561138f5781602001602082028038833980820191505090505b506003600084815260200190815260200160002090805190602001906113b692919061205e565b5060008090505b600581101561142d57600360008481526020019081526020016000206000908060018154018082558091505090600182039060005260206000209060209182820401919006909192909190916101000a81548160ff021916908360ff1602179055505080806001019150506113bd565b506040805190810160405280600b81526020017f5374617274696e672e2e2e00000000000000000000000000000000000000000081525090505b92915050565b6001602052806000526040600020600091509050806000018054600181600116156101000203166002900480601f0160208091040260200160405190810160405280929190818152602001828054600181600116156101000203166002900480156115195780601f106114ee57610100808354040283529160200191611519565b820191906000526020600020905b8154815290600101906020018083116114fc57829003601f168201915b5050505050908060010160009054906101000a900460ff16908060020154905083565b60045481565b6060600160008373ffffffffffffffffffffffffffffffffffffffff1673ffffffffffffffffffffffffffffffffffffffff1681526020019081526020016000206000018054600181600116156101000203166002900480601f01602080910402602001604051908101604052809291908181526020018280546001816001161561010002031660029004801561161a5780601f106115ef5761010080835404028352916020019161161a565b820191906000526020600020905b8154815290600101906020018083116115fd57829003601f168201915b50505050509050919050565b60055481565b60006020528060005260406000206000915054906101000a900473ffffffffffffffffffffffffffffffffffffffff1681565b600060026000848152602001908152602001600020600101601c9054906101000a900460ff1660ff168210156116d95760036000848152602001908152602001600020828154811015156116af57fe5b90600052602060002090602091828204019190069054906101000a900460ff1660ff1690506116de565b600490505b92915050565b6000600160008373ffffffffffffffffffffffffffffffffffffffff1673ffffffffffffffffffffffffffffffffffffffff168152602001908152602001600020600201549050919050565b60026020528060005260406000206000915090508060000160009054906101000a900473ffffffffffffffffffffffffffffffffffffffff16908060010160009054906101000a900473ffffffffffffffffffffffffffffffffffffffff16908060010160149054906101000a900463ffffffff16908060010160189054906101000a900463ffffffff169080600101601c9054906101000a900460ff169080600101601d9054906101000a900460ff169080600101601e9054906101000a900460ff169080600101601f9054906101000a900460ff16905088565b6000806000905060008060008090505b60026000878152602001908152602001600020600101601c9054906101000a900460ff1660ff168110156119f5576000600360008881526020019081526020016000208281548110151561186c57fe5b90600052602060002090602091828204019190069054906101000a900460ff1660ff16141561191b57600193506002600087815260200190815260200160002060010160009054906101000a900473ffffffffffffffffffffffffffffffffffffffff1692506002600087815260200190815260200160002060000160009054906101000a900473ffffffffffffffffffffffffffffffffffffffff169150611916866001611e91565b6119e8565b60038060008881526020019081526020016000208281548110151561193c57fe5b90600052602060002090602091828204019190069054906101000a900460ff1660ff1610156119e757600193506002600087815260200190815260200160002060010160009054906101000a900473ffffffffffffffffffffffffffffffffffffffff1691506002600087815260200190815260200160002060000160009054906101000a900473ffffffffffffffffffffffffffffffffffffffff1692506119e6866000611e91565b5b5b808060010191505061181c565b508215611aa05784600160008473ffffffffffffffffffffffffffffffffffffffff1673ffffffffffffffffffffffffffffffffffffffff168152602001908152602001600020600201819055506000600160008373ffffffffffffffffffffffffffffffffffffffff1673ffffffffffffffffffffffffffffffffffffffff16815260200190815260200160002060020181905550611a958583611f2c565b819350505050611aa8565b600093505050505b919050565b8273ffffffffffffffffffffffffffffffffffffffff166002600084815260200190815260200160002060000160009054906101000a900473ffffffffffffffffffffffffffffffffffffffff1673ffffffffffffffffffffffffffffffffffffffff161415611c1e57611b596003600084815260200190815260200160002060026000858152602001908152602001600020600101601c9054906101000a900460ff1660018461200a565b15611c19578015611be95760026003600084815260200190815260200160002060026000858152602001908152602001600020600101601c9054906101000a900460ff1660ff16815481101515611bac57fe5b90600052602060002090602091828204019190068282829054906101000a900460ff160192506101000a81548160ff021916908360ff1602179055505b600160026000848152602001908152602001600020600101601e6101000a81548160ff0219169083151502179055505b611d8c565b8273ffffffffffffffffffffffffffffffffffffffff166002600084815260200190815260200160002060010160009054906101000a900473ffffffffffffffffffffffffffffffffffffffff1673ffffffffffffffffffffffffffffffffffffffff161415611d8b57611cca6003600084815260200190815260200160002060026000858152602001908152602001600020600101601c9054906101000a900460ff1660018461200a565b15611d8a578015611d5a5760016003600084815260200190815260200160002060026000858152602001908152602001600020600101601c9054906101000a900460ff1660ff16815481101515611d1d57fe5b90600052602060002090602091828204019190068282829054906101000a900460ff160192506101000a81548160ff021916908360ff1602179055505b600160026000848152602001908152602001600020600101601f6101000a81548160ff0219169083151502179055505b5b5b60026000838152602001908152602001600020600101601e9054906101000a900460ff168015611ddc575060026000838152602001908152602001600020600101601f9054906101000a900460ff165b15611e8c57600160026000848152602001908152602001600020600101601c8282829054906101000a900460ff160192506101000a81548160ff021916908360ff160217905550600060026000848152602001908152602001600020600101601e6101000a81548160ff021916908315150217905550600060026000848152602001908152602001600020600101601f6101000a81548160ff021916908315150217905550611e8a8261180c565b505b505050565b8015611ee75760016002600084815260200190815260200160002060010160188282829054906101000a900463ffffffff160192506101000a81548163ffffffff021916908363ffffffff160217905550611f1e565b60006002600084815260200190815260200160002060010160186101000a81548163ffffffff021916908363ffffffff1602179055505b611f2782612018565b505050565b806002600084815260200190815260200160002060000160006101000a81548173ffffffffffffffffffffffffffffffffffffffff021916908373ffffffffffffffffffffffffffffffffffffffff16021790555060006002600084815260200190815260200160002060010160006101000a81548173ffffffffffffffffffffffffffffffffffffffff021916908373ffffffffffffffffffffffffffffffffffffffff160217905550600060026000848152602001908152602001600020600101601d6101000a81548160ff0219169083151502179055505050565b600060019050949350505050565b600060036002600084815260200190815260200160002060010160189054906101000a900463ffffffff1663ffffffff1611156120595761205882611060565b5b919050565b82805482825590600052602060002090601f016020900481019282156120f45791602002820160005b838211156120c557835183826101000a81548160ff021916908360ff1602179055509260200192600101602081600001049283019260010302612087565b80156120f25782816101000a81549060ff02191690556001016020816000010492830192600103026120c5565b505b5090506121019190612185565b5090565b828054600181600116156101000203166002900490600052602060002090601f016020900481019282601f1061214657805160ff1916838001178555612174565b82800160010185558215612174579182015b82811115612173578251825591602001919060010190612158565b5b50905061218191906121b5565b5090565b6121b291905b808211156121ae57600081816101000a81549060ff02191690555060010161218b565b5090565b90565b6121d791905b808211156121d35760008160009055506001016121bb565b5090565b9056fea165627a7a72305820da8ccaa5959709f0884b8754412e91358dda13f06ba1526adeef41da8fa4dd9e0029",
  "source": "pragma solidity ^0.5.0;\n\ncontract Anubis {\n\tconstructor() public{\n\t\taddress p1 = 0xB97AEc1AD0C971C8F29Fca47a2fC4cf2369Ec710;\n\t\taddress p2 = 0xa23d7c5aE0410e723d43978d66DD29eD9Cb3C5D1;\n\t\tcreateEgyption(p1, \"Kologormov\");\n\t\tcreateEgyption(p2, \"Einstein\");\n\t\tcreatePyramid(p1, 1000);\n\t\tgoIntoPyramid(p2, 0);\n\t\tselectCard(p1, 1, true);\n\t\tselectCard(p2, 1, true);\n\t\t//selectCard(p1, 1, true);\n\t\t//selectCard(p2, 1, false);\n\t\t//judge(1);\n\t}\n\tstruct Egyption {\n\t\tstring name;\n\t\tbool alive;\n\t\tuint location;\n\t}\n\n\tstruct Pyramid {\n\t\taddress pharaoh;\n\t\taddress challenger;\n\t\tuint32 pyramidHeight;\n\t\tuint32 pyramidClock;\n\t\tuint8 round;\n\t\tbool inChallenge;\n\t\tbool pharaoh_Done;\n\t\tbool challenger_Done;\n\t}\n\n\tmapping(uint=>address) public Jesus;\n\tmapping(address=>Egyption) public Maat;\n\tmapping(uint=>Pyramid) public Sahara;\n\tmapping(uint=>uint8[]) private BattleHistory; // {AC = 0, AB = 1, BC = 2, BB = 3}\n\n\tuint public pyramidCounter = 1;\n\tuint public population = 0;\n\n\tfunction createEgyption(address _id, string memory _name) public returns(string memory) {\n\t\tbool addUsed = false;\n\t\tfor (uint i=0; i < population; i++){\n\t\t\tif (_id == Jesus[i]){\n\t\t\t\taddUsed = true;\n\t\t\t}\n\t\t}\n\t\tif (!addUsed){\n\t\t\tbool nameRepeat = false;\n\t\t\tfor (uint i=0; i < population; i++){\n\t\t\t\tif (keccak256(abi.encode(_name))== keccak256(abi.encode(Maat[Jesus[i]].name))){\n\t\t\t\t\tnameRepeat = true;\n\t\t\t\t}\n\t\t\t}\n\t\t\tif (!nameRepeat){\n\t\t\t \tJesus[population] = _id;\n\t\t\t\tpopulation++;\n\t\t\t \tMaat[_id] = Egyption({name: _name,\n\t\t\t \t\t\t\t\t\t  alive: true,\n\t\t\t \t\t\t\t\t\t  location: 0});\n\t\t\t\treturn \"Succeed!!\";\n\t\t\t} else {\n\t\t\t\treturn \"Name repeated!!\";\n\t\t\t}\n\t\t} else {\n\t\t\treturn \"Address has been registed!!\";\n\t\t}\n\t}\n\n\tfunction getName(address _id) public returns (string memory) {\n\t\treturn Maat[_id].name;\n\t}\n\n\t//////////////////////////////\n\n\tevent Battle(address _kingId, address _playerId);\n\n\tfunction createPyramid(address _id, uint32 _height) public {\n\t\t// Transactions!\n\t\tMaat[_id].location = pyramidCounter;\n\t\tSahara[pyramidCounter] = Pyramid({pharaoh: _id, \n\t\t\t\t\t\t\t\t\t\t challenger: address(0), \n\t\t\t\t\t\t\t\t\t\t pyramidHeight: _height, \n\t\t\t\t\t\t\t\t\t\t pyramidClock: 0, \n\t\t\t\t\t\t\t\t\t\t round: 0,  \n\t\t\t\t\t\t\t\t\t\t inChallenge: false, \n\t\t\t\t\t\t\t\t\t\t pharaoh_Done: false, \n\t\t\t\t\t\t\t\t\t\t challenger_Done: false});\n\t\tBattleHistory[pyramidCounter] = new uint8[](0);\n\t\tfor (uint i=0; i<5; i++){\n\t\t\tBattleHistory[pyramidCounter].push(0);\n\t\t}\n\t\tSahara[pyramidCounter].pyramidClock = 0;\n\t\tpyramidCounter++;\n\t}\n\n\tfunction destroyPyramid(uint _pyramidNumber) public {\n\t\tdelete Sahara[_pyramidNumber];\n\t}\t\n\n\tfunction getmyPyramid(address _id) public returns(uint) {\n\t\treturn Maat[_id].location;\n\t}\n\n\tfunction goIntoPyramid(address _id, uint _pyramidNumber) public returns (string memory){\n\t\trequire(_pyramidNumber < pyramidCounter);\n\t\tif (Sahara[_pyramidNumber].inChallenge)\n\t\t\treturn \"In Challenge...\";\n\t\tif (_id == Sahara[_pyramidNumber].pharaoh)\n\t\t\treturn \"Cannot play with yourself...\";\n\t\t// Transaction!\n\t\tMaat[_id].location = _pyramidNumber;\n\t\tSahara[_pyramidNumber].challenger = _id;\n\t\tSahara[_pyramidNumber].inChallenge = true;\n\t\tSahara[_pyramidNumber].round = 0;\n\t\tBattleHistory[_pyramidNumber] = new uint8[](0);\n\t\tfor (uint i=0; i<5; i++){\n\t\t\tBattleHistory[_pyramidNumber].push(0);\n\t\t}\n\t\t//emit Battle(Sahara[_pyramidNumber].pharaoh, _id);\n\t\treturn \"Starting...\";\n\t}\n\n\tfunction selectCard(address _id, uint _pyramidNumber, bool _isCivilian) public {\n\t\tif (Sahara[_pyramidNumber].pharaoh == _id){\n\t\t\tif (_isValidMove(BattleHistory[_pyramidNumber], Sahara[_pyramidNumber].round, true, _isCivilian)){\n\t\t\t\tif(_isCivilian) BattleHistory[_pyramidNumber][Sahara[_pyramidNumber].round] += 2;\n\t\t\t\tSahara[_pyramidNumber].pharaoh_Done = true;\n\t\t\t}\n\t\t\t//emit PharaohDone(_pyramidNumber, Sahara[_pyramidNumber].round);\n\t\t} else if (Sahara[_pyramidNumber].challenger == _id){\n\t\t\tif (_isValidMove(BattleHistory[_pyramidNumber], Sahara[_pyramidNumber].round, true, _isCivilian)){\n\t\t\t\tif(_isCivilian) BattleHistory[_pyramidNumber][Sahara[_pyramidNumber].round] += 1;\n\t\t\t\tSahara[_pyramidNumber].challenger_Done = true;\n\t\t\t}\n\t\t\t//emit ChallengerDone(_pyramidNumber, Sahara[_pyramidNumber].round);\n\t\t}\n\n\t\tif (Sahara[_pyramidNumber].pharaoh_Done && Sahara[_pyramidNumber].challenger_Done) {\n\t\t\tSahara[_pyramidNumber].round += 1;\n\t\t\tSahara[_pyramidNumber].pharaoh_Done = false;\n\t\t\tSahara[_pyramidNumber].challenger_Done = false;\n\t\t\tjudge(_pyramidNumber);\n\t\t}\n\t}\n\n\tfunction getBattleHistory(uint _pyramidNumber, uint _round) public returns(uint){\n\t\tif (_round < Sahara[_pyramidNumber].round){\n\t\t\treturn BattleHistory[_pyramidNumber][_round];\n\t\t} else {\n\t\t\treturn 4;\n\t\t}\t\t \n\t}\n\n\t//event Judge(uint _pyramidNumber);\n\tfunction judge(uint _pyramidNumber) public returns (address){\n\t\t//emit Judge(_pyramidNumber);\n\t\tbool end_game = false;\n\t\taddress winner;\n\t\taddress loser;\n\t\tfor (uint i=0; i < Sahara[_pyramidNumber].round; i++){\n\t\t\tif (BattleHistory[_pyramidNumber][i] == 0){\n\t\t\t\tend_game = true;\n\t\t\t\twinner = Sahara[_pyramidNumber].challenger;\n\t\t\t\tloser = Sahara[_pyramidNumber].pharaoh;\n\t\t\t\t_updateClock(_pyramidNumber, true);\n\t\t\t} else if (BattleHistory[_pyramidNumber][i] < 3){\n\t\t\t\tend_game = true;\n\t\t\t\tloser = Sahara[_pyramidNumber].challenger;\n\t\t\t\twinner = Sahara[_pyramidNumber].pharaoh;\n\t\t\t\t_updateClock(_pyramidNumber, false);\n\t\t\t}\n\t\t}\n\n\t\tif (end_game){\n\t\t\t//Transaction!\n\t\t\tMaat[winner].location = _pyramidNumber;\n\t\t\tMaat[loser].location = 0;\n\t\t\t_updatePyramid(_pyramidNumber, winner);\n\t\t\t//Check winner if constitute winning...\n\t\t\treturn winner;\n\t\t} else {\n\t\t\treturn address(0);\n\t\t}\n\t}\n\n\tfunction _updateClock(uint _pyramidNumber, bool _reset) private {\n\t\tif(_reset){\n\t\t\tSahara[_pyramidNumber].pyramidClock += 1;\n\t\t} else {\n\t\t\tSahara[_pyramidNumber].pyramidClock = 0;\n\t\t}\n\t\t_pyramidEndGame(_pyramidNumber);\n\t}\n\n\tfunction _updatePyramid(uint _pyramidNumber, address _id) private {\n\t\tSahara[_pyramidNumber].pharaoh = _id;\n\t\tSahara[_pyramidNumber].challenger = address(0);\n\t\tSahara[_pyramidNumber].inChallenge = false;\n\t}\n\n\tfunction _isValidMove(uint8[] storage _battleHistory, uint8 _battleRound, bool _isPharaoh, bool _isCivilian) private returns (bool){\n\t\treturn true;\n\t}\n\n\tfunction _pyramidEndGame(uint _pyramidNumber) private returns (bool){\n\t\tif (Sahara[_pyramidNumber].pyramidClock > 3){\n\t\t\t// Transactions!\n\t\t\tdestroyPyramid(_pyramidNumber);\n\t\t}\n\t}\n\n}\n\n\n\n\n\n\n\n\n\n",
  "sourcePath": "/home/batman3/Desktop/Blockchain/finalproject/Dapp_FaceYourDesitny/Anubis/contracts/Anubis.sol",
  "compiler": {
    "name": "solc",
    "version": "0.5.0+commit.1d4f565a.Emscripten.clang"
  },
  "schemaVersion": "3.0.9",
  "updatedAt": "2019-06-25T13:02:42.499Z",
  "devdoc": {
    "methods": {}
  },
  "userdoc": {
    "methods": {}
  }
}